:100000000C9462000C948A000C948A000C948A0070
:100010000C948A000C948A000C948A000C948A0038
:100020000C948A000C948A000C948A000C94F002C0
:100030000C948A000C948A000C948A000C948A0018
:100040000C94A6020C948A000C94DE010C94B80166
:100050000C948A000C948A000C948A000C948A00F8
:100060000C948A000C948A000000000024002700F1
:100070002A0000000000250028002B0000000000DE
:1000800023002600290004040404040404040202DA
:100090000202020203030303030301020408102007
:1000A0004080010204081020010204081020000012
:1000B0000008000201000003040700000000000027
:1000C0000000460B11241FBECFEFD8E0DEBFCDBF2E
:1000D00012E0A0E0B1E0E6E3F9E102C005900D9284
:1000E000A631B107D9F723E0A6E1B2E001C01D9225
:1000F000A037B207E1F710E0C2E6D0E004C02197D4
:10010000FE010E948E0CC136D107C9F70E94D006AD
:100110000C94990C0C940000CF92DF92EF92FF9216
:100120000F931F93CF93DF936C017A018B01C0E093
:10013000D0E0CE15DF0589F0D8016D918D01D60193
:10014000ED91FC910190F081E02DC6010995892B7C
:1001500011F47E0102C02196ECCFC701DF91CF914F
:100160001F910F91FF90EF90DF90CF900895833013
:1001700081F028F4813099F08230A1F00895873021
:10018000A9F08830B9F08430D1F4809180008F7D5F
:1001900003C0809180008F7780938000089584B59C
:1001A0008F7702C084B58F7D84BD08958091B000A3
:1001B0008F7703C08091B0008F7D8093B000089549
:1001C000CF93DF93282F30E0F901E255FF4F849160
:1001D000F901E656FF4FD491F901EA57FF4FC49158
:1001E000CC2391F081110E94B700EC2FF0E0EE0FCC
:1001F000FF1FE458FF4FA591B491EC91ED2381E0EE
:1002000090E021F480E002C080E090E0DF91CF91A7
:100210000895862F0C94E0003FB7F89480911C025B
:1002200090911D02A0911E02B0911F0226B5A89BBD
:1002300005C02F3F19F00196A11DB11D3FBFBA2F78
:10024000A92F982F8827820F911DA11DB11DBC01D8
:10025000CD0142E0660F771F881F991F4A95D1F79D
:1002600008958F929F92AF92BF92CF92DF92EF92BA
:10027000FF926B017C010E940C014B015C01C114D7
:10028000D104E104F104F1F00E940C01DC01CB0186
:1002900088199909AA09BB09883E9340A105B105AF
:1002A00070F321E0C21AD108E108F10888EE880E47
:1002B00083E0981EA11CB11CC114D104E104F10417
:1002C00019F7DDCFFF90EF90DF90CF90BF90AF9008
:1002D0009F908F900895089580E090E008950E9487
:1002E000940C84E292E00E94960421E0892B09F4A8
:1002F00020E0822F08956115710579F0FB010190CE
:100300000020E9F73197AF01461B570BDC01ED9157
:10031000FC910280F381E02D099480E090E0089543
:100320000F931F93CF93DF93EC010E947B018C010D
:100330006BE371E0CE010E947B01800F911FDF9182
:10034000CF911F910F91089560E080E00E944A05CF
:100350006EE371E085E593E00E94900161E081E049
:100360000E944A056FE471E085E593E00C949001EA
:100370001F920F920FB60F9211242F933F934F931A
:100380005F936F937F938F939F93AF93BF93EF93FD
:10039000FF9384E292E00E944606FF91EF91BF91A5
:1003A000AF919F918F917F916F915F914F913F910D
:1003B0002F910F900FBE0F901F9018951F920F92C4
:1003C0000FB60F9211242F938F939F93EF93FF9368
:1003D000E0913402F09135028081E0913A02F0918F
:1003E0003B0282FD12C0908180913D028F5F8F732E
:1003F00020913E02821751F0E0913D02F0E0EC5D69
:10040000FD4F958F80933D0201C08081FF91EF9158
:100410009F918F912F910F900FBE0F901F90189565
:100420001F93CF93DF93282F30E0F901E255FF4F60
:100430008491F901E656FF4FD491F901EA57FF4F35
:10044000C491CC23C9F0162F81110E94B700EC2F64
:10045000F0E0EE0FFF1FEE58FF4FA591B4918FB75C
:10046000F894111105C09C91ED2FE095E92302C08D
:10047000EC91ED2BEC938FBFDF91CF911F910895FD
:10048000862F642F0C941002CF93DF93EC0160E071
:100490008E810E94100261E08E810E94100260E055
:1004A0008E810E9410028BE891E00197F1F7DF91B5
:1004B000CF910895CF93DF9390E0FC01E656FF4F74
:1004C0002491FC01EA57FF4F8491882361F190E069
:1004D000880F991FFC01E859FF4FC591D491FC0189
:1004E000EE58FF4FA591B491611109C09FB7F894E0
:1004F0008881209582238883EC912E230BC0623063
:1005000061F49FB7F8943881822F80958323888384
:10051000EC912E2B2C939FBF06C08FB7F894E881E7
:100520002E2B28838FBFDF91CF910895862F642FC4
:100530000C945A022FB7F894609118027091190226
:1005400080911A0290911B022FBF08951F920F9263
:100550000FB60F9211242F933F938F939F93AF93D6
:10056000BF938091180290911902A0911A02B09144
:100570001B023091170223E0230F2D3720F4019640
:10058000A11DB11D05C026E8230F0296A11DB11DB6
:10059000209317028093180290931902A0931A02D5
:1005A000B0931B0280911C0290911D02A0911E022B
:1005B000B0911F020196A11DB11D80931C02909362
:1005C0001D02A0931E02B0931F02BF91AF919F9195
:1005D0008F913F912F910F900FBE0F901F90189504
:1005E0001F920F920FB60F9211242F933F934F93A8
:1005F0005F936F937F938F939F93AF93BF93EF938B
:10060000FF938091160287FF05C01092850010921B
:1006100084001BC020911602022E000C330B809127
:10062000E50290E02817390784F480911602082E1D
:10063000000C990BFC01EE0FFF1F8E0F9F1FFC019A
:10064000EF53FD4F808186FD15C0809116028F5FAC
:100650008093160220911602022E000C330B80911B
:10066000E50290E028173907C4F4809116028C3017
:1006700064F113C080911602082E000C990BFC0146
:10068000EE0FFF1F8E0F9F1FFC01EF53FD4F808168
:1006900060E08F730E941002D8CF80918400909107
:1006A0008500049680349C4918F480E49CE905C0D8
:1006B00080918400909185000496909389008093A6
:1006C00088008FEF809316023BC020918400309108
:1006D000850080911602082E000C990BFC01EE0F8C
:1006E000FF1F8E0F9F1FFC01EF53FD4F81819281F1
:1006F000820F931F90938900809388008091160247
:10070000082E000C990BFC01EE0FFF1F8E0F9F1F90
:10071000FC01EF53FD4F808186FF12C080911602CD
:10072000082E000C990BFC01EE0FFF1F8E0F9F1F70
:10073000FC01EF53FD4F808161E08F730E94100236
:10074000FF91EF91BF91AF919F918F917F916F91A9
:100750005F914F913F912F910F900FBE0F901F907F
:100760001895CF92DF92EF92FF920F931F93CF9342
:10077000DF937C016C0187E0C80ED11CC0E0D0E0A3
:10078000062F10E0B8010C2E02C0759567950A94EB
:10079000E2F76170F60181916F010E9410022196CB
:1007A000C430D10579F7C701DF91CF911F910F9127
:1007B000FF90EF90DF90CF900C944402CF92DF92A5
:1007C000EF92FF920F931F93CF93DF93EC01F62EDE
:1007D000642F8C810E9410028D818F3F19F060E0A0
:1007E0000E9410028F850F2D10E084FF25C06E013E
:1007F00087E0C80ED11CE12CF12CB8010E2C02C0F0
:10080000759567950A94E2F76170F60181916F0121
:100810000E941002FFEFEF1AFF0A88E0E816F104C9
:1008200061F7CE01DF91CF911F910F91FF90EF9073
:10083000DF90CF900C944402B80184E075956795E1
:100840008A95E1F7CE010E94B1036F2DCE01DF91B1
:10085000CF911F910F91FF90EF90DF90CF900C946C
:10086000B10341E00E94DE0381E090E0089540E0A2
:100870000C94DE0361E00E9437048BE39FE1019753
:10088000F1F7089596E0899FD0011124AA51BD4F38
:1008900090967C936E935F9791E091969C9391973D
:1008A00090915203E0915303F0915403992339F04E
:1008B000309751F0811108C08091020304C0309735
:1008C00019F05C968C9109940895FC01538D448D28
:1008D000252F30E0842F90E0821B930B541710F0EB
:1008E000CF96089501970895FC01918D828D9817F8
:1008F00061F0828DDF01A80FB11D5D968C91928D04
:100900009F5F9F73928F90E008958FEF9FEF089500
:10091000FC01918D828D981731F0828DE80FF11DC9
:10092000858D90E008958FEF9FEF0895FC01918DE4
:10093000228D892F90E0805C9F4F821B91098F73DD
:100940009927089580E090E0892B29F00E94710199
:1009500081110C9400000895EF92FF920F931F9362
:10096000CF93DF93EC01623018F08F8588608F871A
:100970006B8B1C8A80E48D8B80E18E8B80E58F8B66
:1009800061E08C810E945A028D818F3F19F061E0F5
:100990000E945A0261E08E810E945A027E0187E025
:1009A000E80EF11C00E010E08F8584FD03C084E0B8
:1009B00090E002C088E090E0081719074CF461E06D
:1009C000F70181917F010E945A020F5F1F4FECCF08
:1009D0008BE39DE00197F1F760E08C810E941002AB
:1009E00060E08E810E9410028D818F3F19F060E0DF
:1009F0000E9410026F8564FD1DC063E0CE010E945D
:100A0000B1030BE416E4C8010197F1F763E0CE01EE
:100A10000E94B103C8010197F1F763E0CE010E9483
:100A2000B10383E592E00197F1F762E0CE010E9405
:100A3000B10316C06062CE010E9437048BE496E4D5
:100A40000197F1F76F856062CE010E94370483E55C
:100A500092E00197F1F76F856062CE010E94370442
:100A60006F856062CE010E94370484E0888B6CE061
:100A7000CE010E943704CE010E943A0482E0898BA5
:100A800066E0CE01DF91CF911F910F91FF90EF9023
:100A90000C943704643008F063E0909168036917A0
:100AA00010F06FEF690FE62FF0E0EB5AFC4F9489DE
:100AB000682F690F606885E593E00C943704BC01EA
:100AC00085E593E00C947B01CF92DF92EF92FF9249
:100AD000DC01A03282E0B8070CF03EC0B7FD06C0D2
:100AE000A53BB1052CF0A4EBB0E002C0A0E0B0E063
:100AF00080916E0328E830E06901C81AD10887FDAB
:100B0000D394CC0CDD1CCC0CDD1C0D2C000CEE08A1
:100B1000FF0880916F0328E532E0281B310987FD2B
:100B20003395220F331F220F331FA901330F660B9A
:100B3000770B9A01AB012C193D094E095F090E9400
:100B4000490C24EB30E040E050E00E941F0CC20E44
:100B5000D31EE41EF51ED60190916D039C3098F5CE
:100B600080916E0348E850E0481B510987FD53957A
:100B7000440F551F440F551FA417B5078CF08091E3
:100B80006F0328E532E0281B310987FD3395220FDA
:100B9000331F220F331FAD012A173B070CF4A901A5
:100BA00042505109440F551F2FB7F894892F90E0F8
:100BB000FC01EE0FFF1F8E0F9F1FFC01EF53FD4F37
:100BC000528341832FBFFF90EF90DF90CF90089525
:100BD0000F931F93CF93DF93C82FD62F86E0C89F24
:100BE000F0011124EA51FD4F11A2878D90A18130AF
:100BF0009105F1F01CF4892B49F043C08230910536
:100C0000A9F10397F1F560E070E034C06623C9F103
:100C100061E070E08C2F0E9442040E949A0260936F
:100C20003E0370933F03809340039093410329C098
:100C30000E949A0200913E0310913F0320914003CD
:100C400030914103AB01BC01401B510B620B730B94
:100C50008091500390915103A0E0B0E08417950774
:100C6000A607B70718F462E070E004C0D11109C00C
:100C700063E070E08C2FDF91CF911F910F910C9466
:100C80004204DF91CF911F910F910895FC01848D53
:100C9000DF01A80FB11DA35ABF4F2C91848D90E0A6
:100CA00001968F739927848FA689B7892C93A08981
:100CB000B1898C9180648C93938D848D981306C038
:100CC0000288F389E02D80818F7D80830895EF92E3
:100CD000FF920F931F93CF93DF93EC0181E0888FF6
:100CE0009B8D8C8D981305C0E889F989808185FDDD
:100CF00024C0F62E0B8D10E00F5F1F4F0F731127CE
:100D0000E02E8C8DE8120CC00FB607FCFACFE889F4
:100D1000F989808185FFF5CFCE010E944606F1CF8B
:100D20008B8DFE01E80FF11DE35AFF4FF0820B8F10
:100D3000EA89FB898081806207C0EE89FF89608330
:100D4000E889F98980818064808381E090E0DF9187
:100D5000CF911F910F91FF90EF900895CF93DF9364
:100D6000EC01888D8823C9F0EA89FB89808185FDA3
:100D700005C0A889B9898C9186FD0FC00FB607FC04
:100D8000F5CF808185FFF2CFA889B9898C9185FF45
:100D9000EDCFCE010E944606E7CFDF91CF910895B7
:100DA000789484B5826084BD84B5816084BD85B546
:100DB000826085BD85B5816085BD80916E00816052
:100DC00080936E00109281008091810082608093F8
:100DD00081008091810081608093810080918000FA
:100DE0008160809380008091B10084608093B10025
:100DF0008091B00081608093B00080917A0084601F
:100E000080937A0080917A00826080937A0080914A
:100E10007A00816080937A0080917A008068809364
:100E20007A001092C1000E94A40180916D038C3061
:100E300008F051C061E088E00E945A0280916D0381
:100E4000E82FF0E09F01220F331FE20FF31FEF5353
:100E5000FD4F9081907C9860908310926E03109269
:100E60006F036CE00E94820C9CE0899FB00111240A
:100E700040E050E09A01260F371FF901EE0FFF1FE7
:100E80002E0F3F1FF901EF53FD4F908196FD16C0C5
:100E90004F5F5F4F4C30510569F781110FC01092C1
:100EA000800082E08093810010928500109284007F
:100EB000B19A80916F00826080936F00E0916D0322
:100EC000F0E0CF01880F991FE80FF91FEF53FD4F96
:100ED00080818064808361E08DE00E945A0261E03D
:100EE0008CE00E945A0262E085E593E00E94AC0427
:100EF000412C512C32014394CC24CA94DC2C809197
:100F0000220290912302892B11F40E94A40181E016
:100F1000809352030E949A0200914203109143036E
:100F20002091440330914503AB01BC01401B510BA0
:100F3000620B730B80914E0390914F03A0E0B0E0E1
:100F400084179507A607B70708F021C1C0E0809174
:100F50004C03C81760F4E0914803F0914903EC0F8B
:100F6000F11D62E080810E945A02CF5FF0CF912C88
:100F700080914D03981608F05FC0092D10E0E091B4
:100F80004A03F0914B03E00FF11F61E080810E9462
:100F90005A02E0914A03F0914B03E00FF11F60E029
:100FA00080810E941002D301C201092C04C0880F65
:100FB000991FAA1FBB1F0A94D2F75C017C01E09421
:100FC000F094812C80914C038816F8F4C82DD0E061
:100FD000E0914803F0914903EC0FFD1F80810E94CE
:100FE000E0002496CC0FDD1FCA51DD4F892B29F478
:100FF000888199818A299B2904C0888199818E21C1
:101000009F21998388838394DDCFE0914A03F091F7
:101010004B03E00FF11F61E080810E94100280917C
:101020004A0390914B03FC01E00FF11F60E08081C7
:101030000E945A0293949CCFE2E0F3E08381948172
:10104000892B21F41082D282C1821582369683E0E8
:10105000EE33F80799F710E006E080914C0318177B
:1010600008F052C0F12CC12FD0E0CC0FDD1FC251CF
:10107000DD4F20914D03F21608F044C0688179815C
:101080000F2C02C0769567950A94E2F76170772776
:10109000129F900111242F0D311DE0914603F09114
:1010A0004703E20FF31FA081E6EEF2E080E0458DFA
:1010B000568D4217530711F461701AC08F5F369630
:1010C0008A30A9F7672BE1F0E2E0F3E080E090E0FE
:1010D0004081411110C0089FF001099FF00D1124BB
:1010E000EA51FD4FA48F368F258F10A2178E61E035
:1010F0000E94E80505C0019636968A30910541F7B1
:10110000F394B7CF1F5FA9CF80E090E0C0E0FC016F
:10111000EA51FD4F21A12111C1E006968C339105C2
:10112000B1F70E949A026093420370934303809345
:10113000440390934503CC2351F180910703882306
:1011400031F18091050390910603019701F510910B
:101150000203112309F497C285E593E00E943A0443
:1011600060E080E00E944A058EE591E00E945F0504
:1011700061E087E00E944A0588E691E00E945F05F1
:1011800061E087E00E944A05C0E0D0E003C0109211
:10119000520379C280912202909123028C179D07FD
:1011A00034F08DE491E00E945F052196F3CFFC01BD
:1011B000E659FE4F208112130AC201969093230232
:1011C00080932202049709F05EC264E873E080E035
:1011D00090E00E94310160E080E00E944A0568E6EC
:1011E00071E085E593E00E94900160E081E00E945B
:1011F0004A058FE691E00E945F0561E084E00E946D
:101200004A056EE771E085E593E00E94900161E098
:101210008FE00E944A0568E671E085E593E00E9450
:10122000900161E080E10E944A0568E671E085E591
:1012300093E00E94900161E08EE00E944A0568E61A
:1012400071E085E593E00E94900161E08DE00E94ED
:101250004A0568E671E085E593E00E94900184EB21
:1012600090E09093210280932002C0912002D091BF
:101270002102D7FD0FC0CE010E94640565E070E039
:1012800080E090E00E9431012597D0932102C09325
:101290002002EBCF61E08CE00E94100268EE73E068
:1012A00080E090E00E94310160E08CE00E9410023A
:1012B00060ED77E080E090E00E94310168EE73E03D
:1012C00080E090E00E94310160EB74E080E090E00B
:1012D0000E94310185E593E00E943A046FE082E0CC
:1012E0000E944A0568E671E085E593E00E9490015E
:1012F0006EE082E00E944A0568E671E085E593E0D1
:101300000E94900160E082E00E944A0568EC70E073
:1013100080E090E00E94310168E871E085E593E0AB
:101320000E94900161E084E00E944A0589E991E011
:101330000E945F0568EC70E080E090E00E9431015F
:1013400085E593E00E943A0460E082E00E944A054D
:101350006BE971E085E593E00E94900168EE73E02F
:1013600080E090E00E94310160E082E00E944A0546
:101370006BE971E085E593E00E94900161E084E013
:101380000E944A058DE691E00E945F0564E670E0E8
:1013900080E090E00E94310185E593E00E943A04EC
:1013A00060E082E00E944A056BE971E085E593E028
:1013B0000E94900168EE73E080E090E00E943101AD
:1013C00060E082E00E944A056BE971E085E593E008
:1013D0000E94900161E084E00E944A058AEA91E05F
:1013E0000E945F0564E670E080E090E00E943101B9
:1013F00085E593E00E943A0460E082E00E944A059D
:101400006BE971E085E593E00E94900168EE73E07E
:1014100080E090E00E94310160E082E00E944A0595
:101420006BE971E085E593E00E94900161E084E062
:101430000E944A058CEA91E00E945F0564E670E034
:1014400080E090E00E94310185E593E00E943A043B
:1014500060E082E00E944A056BE971E085E593E077
:101460000E94900168EE73E080E090E00E943101FC
:1014700061E084E00E944A058EEA91E00E945F05E7
:1014800064E670E080E090E00E94310185E593E041
:101490000E943A0460E082E00E944A0560EB71E03D
:1014A00085E593E00E94900168EE73E080E090E0B3
:1014B0000E94310168E270E080E090E00E9431011A
:1014C00085E593E00E943A0460E082E00E944A05CC
:1014D00080EC91E00E945F0564EF71E080E090E0B5
:1014E0000E94310160E08CE00E944A058BEC91E0A3
:1014F0000E945F0564EF71E080E090E00E9431019E
:1015000060E08DE00E944A058BEC91E00E945F054F
:1015100064EF71E080E090E00E94310160E08EE0D5
:101520000E944A058BEC91E00E945F0560E971E042
:1015300080E090E00E94310185E593E00E943A044A
:1015400060E084E00E944A058DEC91E00E945F0516
:1015500068EB71E080E090E00E94310168EE73E09A
:1015600080E090E00E94310110922102109220024E
:10157000C0912002D0912102C53BD1057CF4CE015F
:101580000E9464056FE070E080E090E00E9431010D
:101590002596D0932102C0932002EACF61E08DE02E
:1015A0000E94100268EE73E080E090E00E9431013A
:1015B00060E08DE00E94100264EF71E080E090E056
:1015C0000E943101109223021092220252C064EF55
:1015D00071E080E090E00E94310185E593E00E9497
:1015E0003A0460E081E00E944A0585ED91E00E94A6
:1015F0005F0560E086E00E944A058AED91E00E9466
:101600005F0561E08FE00E944A0568E671E085E5CC
:1016100093E00E94900161E084E00E944A0564EE3C
:1016200071E085E593E00E94900161E08DE00E9409
:101630004A0568E671E085E593E00E94900162EF5B
:1016400071E084E292E00E94900161E08DE00E94EE
:10165000100268EE73E080E090E00E94310160E0EB
:101660008DE00E94100268EB7BE080E090E00E9439
:10167000310185E593E00E943A040E94A401109292
:101680002302109222020E94A20439CC1092270257
:101690001092260288EE93E0A0E0B0E0809328024A
:1016A00090932902A0932A02B0932B0287E191E044
:1016B000909325028093240285EC90E09093310270
:1016C0008093300284EC90E0909333028093320256
:1016D00080EC90E0909335028093340281EC90E0AE
:1016E000909337028093360282EC90E09093390217
:1016F0008093380286EC90E090933B0280933A020C
:1017000010923D0210923E0210923F02109240024F
:101710008091E5028C30A0F491E0980F9093E5025F
:1017200080936D0390E0FC01EE0FFF1F8E0F9F1F53
:10173000FC01EF53FD4F88EB9BE09283818303C054
:101740008FEF80936D03109258031092570383E339
:1017500091E0909356038093550382E1809359035F
:101760008FEF80935A0383E180935B0381E1809341
:101770005C0380E180935D038FE080935E038EE0E5
:1017800080935F03109260031092610310926203D2
:10179000109263031092640361E085E593E00E9478
:1017A000AC041092E8021092EC021092EB0210923C
:1017B000ED0289E291E09093E7028093E60280E0F7
:1017C00090E0FC01EA51FD4F148E10A2178E11A279
:1017D00006968C339105A9F783E091E09093490335
:1017E0008093480380E091E090934B0380934A03F9
:1017F00084E080934C0383E080934D0387E091E085
:1018000090934703809346038AE090E090934F03C0
:1018100080934E0384EF91E09093510380935003A3
:1018200010925403109253031092420310924303F8
:101830001092440310924503109252030895052E0E
:1018400097FB1EF400940E94360C57FD07D00E94AF
:10185000510C07FC03D04EF40C94360C5095409577
:10186000309521953F4F4F4F5F4F0895909580954C
:10187000709561957F4F8F4F9F4F08950E94730C15
:10188000A59F900DB49F900DA49F800D911D1124D4
:101890000895B7FF0C943E0C0E943E0C821B930BE4
:1018A0000895A1E21A2EAA1BBB1BFD010DC0AA1FA1
:1018B000BB1FEE1FFF1FA217B307E407F50720F0B9
:1018C000A21BB30BE40BF50B661F771F881F991F34
:1018D0001A9469F760957095809590959B01AC017D
:1018E000BD01CF010895A29FB001B39FC001A39F86
:1018F000700D811D1124911DB29F700D811D112449
:10190000911D0895991B79E004C0991F961708F05E
:10191000961B881F7A95C9F780950895EE0FFF1FD3
:101920000590F491E02D099481E090E0F8940C94F6
:06193000990CF894FFCFB2
:1019360004050600010203313233343536373839AF
:101946002A30230000000067068C006504AE069668
:101956000474048804000000009602400209010095
:1019660000000031048C006C016B010D0A002A4551
:101976004E5445522054484520434F44452A00546E
:101986004F204F50454E20444F4F52212100504189
:101996005353574F52443A002000353536340041F0
:1019A6006363657373204772616E7465640057459F
:1019B6004C434F4D4521210047455420494E205761
:1019C600495448494E3A3A3A003500474554204969
:1019D6004E2057495448494E3A00330032003100F0
:1019E60047455420494E2057495448494E3A3A00F3
:1019F60052452D4C4F434B494E47002E004C4F430A
:101A06004B45442100434F444500494E434F5252F3
:101A16004543540054525920414741494E20212103
:101A26002100434F444520494E434F5252454354AB
:101A360020594F552041524520554E415554484F47
:061A460052495A4544001C
:00000001FF
